{
  "contractName": "PorkOwnership",
  "abi": [
    {
      "inputs": [
        {
          "internalType": "address",
          "name": "prod_contract_addr",
          "type": "address"
        }
      ],
      "stateMutability": "nonpayable",
      "type": "constructor"
    },
    {
      "anonymous": false,
      "inputs": [
        {
          "indexed": true,
          "internalType": "bytes32",
          "name": "p",
          "type": "bytes32"
        },
        {
          "indexed": true,
          "internalType": "address",
          "name": "account",
          "type": "address"
        }
      ],
      "name": "TransferBatchOwnership",
      "type": "event"
    },
    {
      "anonymous": false,
      "inputs": [
        {
          "indexed": true,
          "internalType": "bytes32",
          "name": "p",
          "type": "bytes32"
        },
        {
          "indexed": true,
          "internalType": "address",
          "name": "account",
          "type": "address"
        }
      ],
      "name": "TransferProductOwnership",
      "type": "event"
    },
    {
      "inputs": [
        {
          "internalType": "bytes32",
          "name": "",
          "type": "bytes32"
        }
      ],
      "name": "currentBatchOwner",
      "outputs": [
        {
          "internalType": "address",
          "name": "",
          "type": "address"
        }
      ],
      "stateMutability": "view",
      "type": "function",
      "constant": true
    },
    {
      "inputs": [
        {
          "internalType": "bytes32",
          "name": "",
          "type": "bytes32"
        }
      ],
      "name": "currentProductOwner",
      "outputs": [
        {
          "internalType": "address",
          "name": "",
          "type": "address"
        }
      ],
      "stateMutability": "view",
      "type": "function",
      "constant": true
    },
    {
      "inputs": [
        {
          "internalType": "uint256",
          "name": "op_type",
          "type": "uint256"
        },
        {
          "internalType": "bytes32",
          "name": "p_hash",
          "type": "bytes32"
        }
      ],
      "name": "addOwnership",
      "outputs": [
        {
          "internalType": "bool",
          "name": "",
          "type": "bool"
        }
      ],
      "stateMutability": "nonpayable",
      "type": "function"
    },
    {
      "inputs": [
        {
          "internalType": "uint256",
          "name": "op_type",
          "type": "uint256"
        },
        {
          "internalType": "bytes32",
          "name": "p_hash",
          "type": "bytes32"
        },
        {
          "internalType": "address",
          "name": "to",
          "type": "address"
        }
      ],
      "name": "changeOwnership",
      "outputs": [
        {
          "internalType": "bool",
          "name": "",
          "type": "bool"
        }
      ],
      "stateMutability": "nonpayable",
      "type": "function"
    }
  ],
  "bytecode": "0x60806040523480156200001157600080fd5b5060405162001507380380620015078339818101604052810190620000379190620000e9565b80600260006101000a81548173ffffffffffffffffffffffffffffffffffffffff021916908373ffffffffffffffffffffffffffffffffffffffff160217905550506200011b565b600080fd5b600073ffffffffffffffffffffffffffffffffffffffff82169050919050565b6000620000b18262000084565b9050919050565b620000c381620000a4565b8114620000cf57600080fd5b50565b600081519050620000e381620000b8565b92915050565b6000602082840312156200010257620001016200007f565b5b60006200011284828501620000d2565b91505092915050565b6113dc806200012b6000396000f3fe608060405234801561001057600080fd5b506004361061004c5760003560e01c80637db5a2bc14610051578063ac81449014610081578063da32082d146100b1578063f0fddc94146100e1575b600080fd5b61006b60048036038101906100669190610b12565b610111565b6040516100789190610b6d565b60405180910390f35b61009b60048036038101906100969190610be6565b6105f8565b6040516100a89190610b6d565b60405180910390f35b6100cb60048036038101906100c69190610c39565b610a2c565b6040516100d89190610c75565b60405180910390f35b6100fb60048036038101906100f69190610c39565b610a5f565b6040516101089190610c75565b60405180910390f35b600080600181111561012657610125610c90565b5b8303610383576000600260009054906101000a900473ffffffffffffffffffffffffffffffffffffffff1673ffffffffffffffffffffffffffffffffffffffff1663c81e25ab846040518263ffffffff1660e01b81526004016101899190610cce565b600060405180830381865afa1580156101a6573d6000803e3d6000fd5b505050506040513d6000823e3d601f19601f820116820180604052508101906101cf9190610e68565b90915090505080915050600073ffffffffffffffffffffffffffffffffffffffff1660008085815260200190815260200160002060009054906101000a900473ffffffffffffffffffffffffffffffffffffffff1673ffffffffffffffffffffffffffffffffffffffff161461027a576040517f08c379a000000000000000000000000000000000000000000000000000000000815260040161027190610f80565b60405180910390fd5b3373ffffffffffffffffffffffffffffffffffffffff168173ffffffffffffffffffffffffffffffffffffffff16146102e8576040517f08c379a00000000000000000000000000000000000000000000000000000000081526004016102df90610fec565b60405180910390fd5b3360008085815260200190815260200160002060006101000a81548173ffffffffffffffffffffffffffffffffffffffff021916908373ffffffffffffffffffffffffffffffffffffffff1602179055503373ffffffffffffffffffffffffffffffffffffffff16837f0b7b1062e8529cd453866b74230e45e1d248809f14f91f1be97a732bc52f256a60405160405180910390a3506105f2565b60018081111561039657610395610c90565b5b83036105f1576000600260009054906101000a900473ffffffffffffffffffffffffffffffffffffffff1673ffffffffffffffffffffffffffffffffffffffff166379054391846040518263ffffffff1660e01b81526004016103f99190610cce565b600060405180830381865afa158015610416573d6000803e3d6000fd5b505050506040513d6000823e3d601f19601f8201168201806040525081019061043f9190610e68565b90915090505080915050600073ffffffffffffffffffffffffffffffffffffffff166001600085815260200190815260200160002060009054906101000a900473ffffffffffffffffffffffffffffffffffffffff1673ffffffffffffffffffffffffffffffffffffffff16146104eb576040517f08c379a00000000000000000000000000000000000000000000000000000000081526004016104e290611058565b60405180910390fd5b3373ffffffffffffffffffffffffffffffffffffffff168173ffffffffffffffffffffffffffffffffffffffff1614610559576040517f08c379a0000000000000000000000000000000000000000000000000000000008152600401610550906110ea565b60405180910390fd5b336001600085815260200190815260200160002060006101000a81548173ffffffffffffffffffffffffffffffffffffffff021916908373ffffffffffffffffffffffffffffffffffffffff1602179055503373ffffffffffffffffffffffffffffffffffffffff16837fe2d5b74efaa0dc370d71f08be6bc6c865613194b7345262a998fb5232622c0b260405160405180910390a3505b5b92915050565b600080600181111561060d5761060c610c90565b5b840361074d573373ffffffffffffffffffffffffffffffffffffffff1660008085815260200190815260200160002060009054906101000a900473ffffffffffffffffffffffffffffffffffffffff1673ffffffffffffffffffffffffffffffffffffffff16146106b3576040517f08c379a00000000000000000000000000000000000000000000000000000000081526004016106aa90611156565b60405180910390fd5b8160008085815260200190815260200160002060006101000a81548173ffffffffffffffffffffffffffffffffffffffff021916908373ffffffffffffffffffffffffffffffffffffffff1602179055508173ffffffffffffffffffffffffffffffffffffffff16837f0b7b1062e8529cd453866b74230e45e1d248809f14f91f1be97a732bc52f256a60405160405180910390a3610a25565b6001808111156107605761075f610c90565b5b8403610a24573373ffffffffffffffffffffffffffffffffffffffff166001600085815260200190815260200160002060009054906101000a900473ffffffffffffffffffffffffffffffffffffffff1673ffffffffffffffffffffffffffffffffffffffff1614610807576040517f08c379a00000000000000000000000000000000000000000000000000000000081526004016107fe906111e8565b60405180910390fd5b816001600085815260200190815260200160002060006101000a81548173ffffffffffffffffffffffffffffffffffffffff021916908373ffffffffffffffffffffffffffffffffffffffff1602179055508173ffffffffffffffffffffffffffffffffffffffff16837fe2d5b74efaa0dc370d71f08be6bc6c865613194b7345262a998fb5232622c0b260405160405180910390a36000600260009054906101000a900473ffffffffffffffffffffffffffffffffffffffff1673ffffffffffffffffffffffffffffffffffffffff1663de2e92d4856040518263ffffffff1660e01b81526004016108fa9190610cce565b60c0604051808303816000875af1158015610919573d6000803e3d6000fd5b505050506040513d601f19601f8201168201806040525081019061093d91906112d3565b905060005b6006811015610a21578360008084846006811061096257610961611300565b5b6020020151815260200190815260200160002060006101000a81548173ffffffffffffffffffffffffffffffffffffffff021916908373ffffffffffffffffffffffffffffffffffffffff1602179055508373ffffffffffffffffffffffffffffffffffffffff168282600681106109dd576109dc611300565b5b60200201517f0b7b1062e8529cd453866b74230e45e1d248809f14f91f1be97a732bc52f256a60405160405180910390a38080610a199061135e565b915050610942565b50505b5b9392505050565b60006020528060005260406000206000915054906101000a900473ffffffffffffffffffffffffffffffffffffffff1681565b60016020528060005260406000206000915054906101000a900473ffffffffffffffffffffffffffffffffffffffff1681565b6000604051905090565b600080fd5b600080fd5b6000819050919050565b610ab981610aa6565b8114610ac457600080fd5b50565b600081359050610ad681610ab0565b92915050565b6000819050919050565b610aef81610adc565b8114610afa57600080fd5b50565b600081359050610b0c81610ae6565b92915050565b60008060408385031215610b2957610b28610a9c565b5b6000610b3785828601610ac7565b9250506020610b4885828601610afd565b9150509250929050565b60008115159050919050565b610b6781610b52565b82525050565b6000602082019050610b826000830184610b5e565b92915050565b600073ffffffffffffffffffffffffffffffffffffffff82169050919050565b6000610bb382610b88565b9050919050565b610bc381610ba8565b8114610bce57600080fd5b50565b600081359050610be081610bba565b92915050565b600080600060608486031215610bff57610bfe610a9c565b5b6000610c0d86828701610ac7565b9350506020610c1e86828701610afd565b9250506040610c2f86828701610bd1565b9150509250925092565b600060208284031215610c4f57610c4e610a9c565b5b6000610c5d84828501610afd565b91505092915050565b610c6f81610ba8565b82525050565b6000602082019050610c8a6000830184610c66565b92915050565b7f4e487b7100000000000000000000000000000000000000000000000000000000600052602160045260246000fd5b610cc881610adc565b82525050565b6000602082019050610ce36000830184610cbf565b92915050565b600081519050610cf881610bba565b92915050565b600080fd5b600080fd5b6000601f19601f8301169050919050565b7f4e487b7100000000000000000000000000000000000000000000000000000000600052604160045260246000fd5b610d5182610d08565b810181811067ffffffffffffffff82111715610d7057610d6f610d19565b5b80604052505050565b6000610d83610a92565b9050610d8f8282610d48565b919050565b600067ffffffffffffffff821115610daf57610dae610d19565b5b610db882610d08565b9050602081019050919050565b60005b83811015610de3578082015181840152602081019050610dc8565b83811115610df2576000848401525b50505050565b6000610e0b610e0684610d94565b610d79565b905082815260208101848484011115610e2757610e26610d03565b5b610e32848285610dc5565b509392505050565b600082601f830112610e4f57610e4e610cfe565b5b8151610e5f848260208601610df8565b91505092915050565b60008060008060808587031215610e8257610e81610a9c565b5b6000610e9087828801610ce9565b945050602085015167ffffffffffffffff811115610eb157610eb0610aa1565b5b610ebd87828801610e3a565b935050604085015167ffffffffffffffff811115610ede57610edd610aa1565b5b610eea87828801610e3a565b925050606085015167ffffffffffffffff811115610f0b57610f0a610aa1565b5b610f1787828801610e3a565b91505092959194509250565b600082825260208201905092915050565b7f42617463682077617320616c7265616479207265676973746572656400000000600082015250565b6000610f6a601c83610f23565b9150610f7582610f34565b602082019050919050565b60006020820190508181036000830152610f9981610f5d565b9050919050565b7f426174636820776173206e6f74206d6164652062792072657175657374657200600082015250565b6000610fd6601f83610f23565b9150610fe182610fa0565b602082019050919050565b6000602082019050818103600083015261100581610fc9565b9050919050565b7f50726f647563742077617320616c726561647920726567697374657265640000600082015250565b6000611042601e83610f23565b915061104d8261100c565b602082019050919050565b6000602082019050818103600083015261107181611035565b9050919050565b7f50726f6475637420776173206e6f74206d61646520627920726571756573746560008201527f7200000000000000000000000000000000000000000000000000000000000000602082015250565b60006110d4602183610f23565b91506110df82611078565b604082019050919050565b60006020820190508181036000830152611103816110c7565b9050919050565b7f4261746368206973206e6f74206f776e65642062792072657175657374657200600082015250565b6000611140601f83610f23565b915061114b8261110a565b602082019050919050565b6000602082019050818103600083015261116f81611133565b9050919050565b7f50726f64756374206973206e6f74206f776e656420627920726571756573746560008201527f7200000000000000000000000000000000000000000000000000000000000000602082015250565b60006111d2602183610f23565b91506111dd82611176565b604082019050919050565b60006020820190508181036000830152611201816111c5565b9050919050565b600067ffffffffffffffff82111561122357611222610d19565b5b602082029050919050565b600080fd5b60008151905061124281610ae6565b92915050565b600061125b61125684611208565b610d79565b905080602084028301858111156112755761127461122e565b5b835b8181101561129e578061128a8882611233565b845260208401935050602081019050611277565b5050509392505050565b600082601f8301126112bd576112bc610cfe565b5b60066112ca848285611248565b91505092915050565b600060c082840312156112e9576112e8610a9c565b5b60006112f7848285016112a8565b91505092915050565b7f4e487b7100000000000000000000000000000000000000000000000000000000600052603260045260246000fd5b7f4e487b7100000000000000000000000000000000000000000000000000000000600052601160045260246000fd5b600061136982610aa6565b91507fffffffffffffffffffffffffffffffffffffffffffffffffffffffffffffffff820361139b5761139a61132f565b5b60018201905091905056fea2646970667358221220a00f991aa89476387d50e9aa0866b8721aa4cdd85651605bb7eb8e7a0a2101d864736f6c634300080e0033",
  "immutableReferences": {},
  "source": "pragma solidity 0.8.14;\r\n\r\ncontract ProductManagement{\r\n    struct Batch{\r\n        address farmer;\r\n        string lote_number;\r\n        string batch_weight;\r\n        string creation_date;\r\n    }\r\n\r\n    struct Product{\r\n        address farmer;\r\n        string lote_number;\r\n        string product_weight;\r\n        string creation_date;\r\n        bytes32[] batches;\r\n    }\r\n\r\n    mapping(bytes32 => Batch) public batches;\r\n    mapping(bytes32 => Product) public products;\r\n\r\n    function getBatchs(bytes32 product_hash) public returns (bytes32[6] memory) {}\r\n}\r\n\r\ncontract PorkOwnership {\r\n\r\n    enum OperationType {PART, PRODUCT}\r\n    mapping(bytes32 => address) public currentBatchOwner;\r\n    mapping(bytes32 => address) public currentProductOwner;\r\n\r\n    event TransferBatchOwnership(bytes32 indexed p, address indexed account);\r\n    event TransferProductOwnership(bytes32 indexed p, address indexed account);\r\n    ProductManagement private pm;\r\n\r\n    constructor(address prod_contract_addr) public {\r\n        //1 \r\n        pm = ProductManagement(prod_contract_addr);\r\n    }\r\n\r\n    function addOwnership(uint op_type, bytes32 p_hash) public returns (bool) {\r\n        if(op_type == uint(OperationType.PART)){\r\n            address farmer;\r\n            (farmer, , , ) = pm.batches(p_hash);\r\n            require(currentBatchOwner[p_hash] == address(0), \"Batch was already registered\");\r\n            require(farmer == msg.sender, \"Batch was not made by requester\");\r\n            currentBatchOwner[p_hash] = msg.sender;\r\n            emit TransferBatchOwnership(p_hash, msg.sender);\r\n        } else if (op_type == uint(OperationType.PRODUCT)){\r\n            address farmer;\r\n            (farmer, , , ) = pm.products(p_hash);\r\n            require(currentProductOwner[p_hash] == address(0), \"Product was already registered\");\r\n            require(farmer == msg.sender, \"Product was not made by requester\");\r\n            currentProductOwner[p_hash] = msg.sender;\r\n            emit TransferProductOwnership(p_hash, msg.sender);\r\n        }\r\n    }\r\n\r\n    function changeOwnership(uint op_type, bytes32 p_hash, address to) public returns (bool) {\r\n      // 2 \r\n        if(op_type == uint(OperationType.PART)){\r\n            require(currentBatchOwner[p_hash] == msg.sender, \"Batch is not owned by requester\");\r\n            currentBatchOwner[p_hash] = to;\r\n            emit TransferBatchOwnership(p_hash, to);\r\n        } else if (op_type == uint(OperationType.PRODUCT)){\r\n            require(currentProductOwner[p_hash] == msg.sender, \"Product is not owned by requester\");\r\n            currentProductOwner[p_hash] = to;\r\n            emit TransferProductOwnership(p_hash, to);\r\n            // 3\r\n            bytes32[6] memory part_list = pm.getBatchs(p_hash);\r\n            for(uint i = 0; i < part_list.length; i++){\r\n                currentBatchOwner[part_list[i]] = to;\r\n                emit TransferBatchOwnership(part_list[i], to);\r\n            }\r\n\r\n        }\r\n    }\r\n}\r\n",
  "sourcePath": "D:\\ERP\\BlockchainTraceablePork\\contracts\\PorkOwnership.sol",
  "compiler": {
    "name": "solc",
    "version": "0.8.14+commit.80d49f37.Emscripten.clang"
  },
  "schemaVersion": "3.4.11",
  "updatedAt": "2023-01-14T02:39:19.022Z",
  "networkType": "ethereum",
  "devdoc": {
    "kind": "dev",
    "methods": {},
    "version": 1
  },
  "userdoc": {
    "kind": "user",
    "methods": {},
    "version": 1
  }
}