{
  "contractName": "ProductManagement",
  "abi": [
    {
      "inputs": [],
      "stateMutability": "nonpayable",
      "type": "constructor"
    },
    {
      "inputs": [
        {
          "internalType": "bytes32",
          "name": "",
          "type": "bytes32"
        }
      ],
      "name": "batches",
      "outputs": [
        {
          "internalType": "address",
          "name": "farmer",
          "type": "address"
        },
        {
          "internalType": "string",
          "name": "lote_number",
          "type": "string"
        },
        {
          "internalType": "string",
          "name": "batch_weight",
          "type": "string"
        },
        {
          "internalType": "string",
          "name": "creation_date",
          "type": "string"
        }
      ],
      "stateMutability": "view",
      "type": "function",
      "constant": true
    },
    {
      "inputs": [
        {
          "internalType": "bytes32",
          "name": "",
          "type": "bytes32"
        }
      ],
      "name": "products",
      "outputs": [
        {
          "internalType": "address",
          "name": "farmer",
          "type": "address"
        },
        {
          "internalType": "string",
          "name": "lote_number",
          "type": "string"
        },
        {
          "internalType": "string",
          "name": "product_weight",
          "type": "string"
        },
        {
          "internalType": "string",
          "name": "creation_date",
          "type": "string"
        }
      ],
      "stateMutability": "view",
      "type": "function",
      "constant": true
    },
    {
      "inputs": [
        {
          "internalType": "string",
          "name": "lote_number",
          "type": "string"
        },
        {
          "internalType": "string",
          "name": "batch_weight",
          "type": "string"
        },
        {
          "internalType": "string",
          "name": "creation_date",
          "type": "string"
        }
      ],
      "name": "registerBatch",
      "outputs": [
        {
          "internalType": "bytes32",
          "name": "",
          "type": "bytes32"
        }
      ],
      "stateMutability": "nonpayable",
      "type": "function"
    },
    {
      "inputs": [
        {
          "internalType": "string",
          "name": "lote_number",
          "type": "string"
        },
        {
          "internalType": "string",
          "name": "product_weight",
          "type": "string"
        },
        {
          "internalType": "string",
          "name": "creation_date",
          "type": "string"
        },
        {
          "internalType": "bytes32[6]",
          "name": "part_array",
          "type": "bytes32[6]"
        }
      ],
      "name": "registerProduct",
      "outputs": [
        {
          "internalType": "bytes32",
          "name": "",
          "type": "bytes32"
        }
      ],
      "stateMutability": "nonpayable",
      "type": "function"
    },
    {
      "inputs": [
        {
          "internalType": "bytes32",
          "name": "product_hash",
          "type": "bytes32"
        }
      ],
      "name": "getBatchs",
      "outputs": [
        {
          "internalType": "bytes32[6]",
          "name": "",
          "type": "bytes32[6]"
        }
      ],
      "stateMutability": "nonpayable",
      "type": "function"
    }
  ],
  "bytecode": "0x608060405234801561001057600080fd5b506117be806100206000396000f3fe608060405234801561001057600080fd5b50600436106100575760003560e01c80632ae9ad651461005c578063790543911461008c578063ae32ef16146100bf578063c81e25ab146100ef578063de2e92d414610122575b600080fd5b610076600480360381019061007191906110cf565b610152565b604051610083919061119a565b60405180910390f35b6100a660048036038101906100a191906111b5565b610402565b6040516100b694939291906112ab565b60405180910390f35b6100d960048036038101906100d49190611305565b6105ea565b6040516100e6919061119a565b60405180910390f35b610109600480360381019061010491906111b5565b61079a565b60405161011994939291906112ab565b60405180910390f35b61013c600480360381019061013791906111b5565b610982565b6040516101499190611457565b60405180910390f35b600080600090505b600681101561023157600073ffffffffffffffffffffffffffffffffffffffff1660008085846006811061019157610190611472565b5b6020020151815260200190815260200160002060000160009054906101000a900473ffffffffffffffffffffffffffffffffffffffff1673ffffffffffffffffffffffffffffffffffffffff160361021e576040517f08c379a0000000000000000000000000000000000000000000000000000000008152600401610215906114ed565b60405180910390fd5b808061022990611546565b91505061015a565b600061023f33888888610a88565b9050600073ffffffffffffffffffffffffffffffffffffffff166001600083815260200190815260200160002060000160009054906101000a900473ffffffffffffffffffffffffffffffffffffffff1673ffffffffffffffffffffffffffffffffffffffff16146102e6576040517f08c379a00000000000000000000000000000000000000000000000000000000081526004016102dd906115da565b60405180910390fd5b60006040518060a001604052803373ffffffffffffffffffffffffffffffffffffffff168152602001898152602001888152602001878152602001868152509050806001600084815260200190815260200160002060008201518160000160006101000a81548173ffffffffffffffffffffffffffffffffffffffff021916908373ffffffffffffffffffffffffffffffffffffffff160217905550602082015181600101908051906020019061039e929190610d67565b5060408201518160020190805190602001906103bb929190610d67565b5060608201518160030190805190602001906103d8929190610d67565b506080820151816004019060066103f0929190610ded565b50905050819350505050949350505050565b60016020528060005260406000206000915090508060000160009054906101000a900473ffffffffffffffffffffffffffffffffffffffff169080600101805461044b90611629565b80601f016020809104026020016040519081016040528092919081815260200182805461047790611629565b80156104c45780601f10610499576101008083540402835291602001916104c4565b820191906000526020600020905b8154815290600101906020018083116104a757829003601f168201915b5050505050908060020180546104d990611629565b80601f016020809104026020016040519081016040528092919081815260200182805461050590611629565b80156105525780601f1061052757610100808354040283529160200191610552565b820191906000526020600020905b81548152906001019060200180831161053557829003601f168201915b50505050509080600301805461056790611629565b80601f016020809104026020016040519081016040528092919081815260200182805461059390611629565b80156105e05780601f106105b5576101008083540402835291602001916105e0565b820191906000526020600020905b8154815290600101906020018083116105c357829003601f168201915b5050505050905084565b6000806105f933868686610a88565b9050600073ffffffffffffffffffffffffffffffffffffffff1660008083815260200190815260200160002060000160009054906101000a900473ffffffffffffffffffffffffffffffffffffffff1673ffffffffffffffffffffffffffffffffffffffff161461069f576040517f08c379a0000000000000000000000000000000000000000000000000000000008152600401610696906116a6565b60405180910390fd5b600060405180608001604052803373ffffffffffffffffffffffffffffffffffffffff1681526020018781526020018681526020018581525090508060008084815260200190815260200160002060008201518160000160006101000a81548173ffffffffffffffffffffffffffffffffffffffff021916908373ffffffffffffffffffffffffffffffffffffffff1602179055506020820151816001019080519060200190610750929190610d67565b50604082015181600201908051906020019061076d929190610d67565b50606082015181600301908051906020019061078a929190610d67565b5090505081925050509392505050565b60006020528060005260406000206000915090508060000160009054906101000a900473ffffffffffffffffffffffffffffffffffffffff16908060010180546107e390611629565b80601f016020809104026020016040519081016040528092919081815260200182805461080f90611629565b801561085c5780601f106108315761010080835404028352916020019161085c565b820191906000526020600020905b81548152906001019060200180831161083f57829003601f168201915b50505050509080600201805461087190611629565b80601f016020809104026020016040519081016040528092919081815260200182805461089d90611629565b80156108ea5780601f106108bf576101008083540402835291602001916108ea565b820191906000526020600020905b8154815290600101906020018083116108cd57829003601f168201915b5050505050908060030180546108ff90611629565b80601f016020809104026020016040519081016040528092919081815260200182805461092b90611629565b80156109785780601f1061094d57610100808354040283529160200191610978565b820191906000526020600020905b81548152906001019060200180831161095b57829003601f168201915b5050505050905084565b61098a610e2d565b600073ffffffffffffffffffffffffffffffffffffffff166001600084815260200190815260200160002060000160009054906101000a900473ffffffffffffffffffffffffffffffffffffffff1673ffffffffffffffffffffffffffffffffffffffff1603610a2f576040517f08c379a0000000000000000000000000000000000000000000000000000000008152600401610a2690611712565b60405180910390fd5b60016000838152602001908152602001600020600401600680602002604051908101604052809291908260068015610a7c576020028201915b815481526020019060010190808311610a68575b50505050509050919050565b6000808560601b90506000859050600085905060008590506000815183518551601460ff16610ab79190611732565b610ac19190611732565b610acb9190611732565b67ffffffffffffffff811115610ae457610ae3610eb8565b5b6040519080825280601f01601f191660200182016040528015610b165781602001600182028036833780820191505090505b50905060008190506000805b601460ff16811015610ba657878160148110610b4157610b40611472565b5b1a60f81b838380610b5190611546565b945081518110610b6457610b63611472565b5b60200101907effffffffffffffffffffffffffffffffffffffffffffffffffffffffffffff1916908160001a9053508080610b9e90611546565b915050610b22565b600090505b8651811015610c3357868181518110610bc757610bc6611472565b5b602001015160f81c60f81b838380610bde90611546565b945081518110610bf157610bf0611472565b5b60200101907effffffffffffffffffffffffffffffffffffffffffffffffffffffffffffff1916908160001a9053508080610c2b90611546565b915050610bab565b600090505b8551811015610cc057858181518110610c5457610c53611472565b5b602001015160f81c60f81b838380610c6b90611546565b945081518110610c7e57610c7d611472565b5b60200101907effffffffffffffffffffffffffffffffffffffffffffffffffffffffffffff1916908160001a9053508080610cb890611546565b915050610c38565b600090505b8451811015610d4d57848181518110610ce157610ce0611472565b5b602001015160f81c60f81b838380610cf890611546565b945081518110610d0b57610d0a611472565b5b60200101907effffffffffffffffffffffffffffffffffffffffffffffffffffffffffffff1916908160001a9053508080610d4590611546565b915050610cc5565b828051906020012098505050505050505050949350505050565b828054610d7390611629565b90600052602060002090601f016020900481019282610d955760008555610ddc565b82601f10610dae57805160ff1916838001178555610ddc565b82800160010185558215610ddc579182015b82811115610ddb578251825591602001919060010190610dc0565b5b509050610de99190610e4f565b5090565b8260068101928215610e1c579160200282015b82811115610e1b578251825591602001919060010190610e00565b5b509050610e299190610e6c565b5090565b6040518060c00160405280600690602082028036833780820191505090505090565b5b80821115610e68576000816000905550600101610e50565b5090565b5b80821115610e85576000816000905550600101610e6d565b5090565b6000604051905090565b600080fd5b600080fd5b600080fd5b600080fd5b6000601f19601f8301169050919050565b7f4e487b7100000000000000000000000000000000000000000000000000000000600052604160045260246000fd5b610ef082610ea7565b810181811067ffffffffffffffff82111715610f0f57610f0e610eb8565b5b80604052505050565b6000610f22610e89565b9050610f2e8282610ee7565b919050565b600067ffffffffffffffff821115610f4e57610f4d610eb8565b5b610f5782610ea7565b9050602081019050919050565b82818337600083830152505050565b6000610f86610f8184610f33565b610f18565b905082815260208101848484011115610fa257610fa1610ea2565b5b610fad848285610f64565b509392505050565b600082601f830112610fca57610fc9610e9d565b5b8135610fda848260208601610f73565b91505092915050565b600067ffffffffffffffff821115610ffe57610ffd610eb8565b5b602082029050919050565b600080fd5b6000819050919050565b6110218161100e565b811461102c57600080fd5b50565b60008135905061103e81611018565b92915050565b600061105761105284610fe3565b610f18565b9050806020840283018581111561107157611070611009565b5b835b8181101561109a5780611086888261102f565b845260208401935050602081019050611073565b5050509392505050565b600082601f8301126110b9576110b8610e9d565b5b60066110c6848285611044565b91505092915050565b60008060008061012085870312156110ea576110e9610e93565b5b600085013567ffffffffffffffff81111561110857611107610e98565b5b61111487828801610fb5565b945050602085013567ffffffffffffffff81111561113557611134610e98565b5b61114187828801610fb5565b935050604085013567ffffffffffffffff81111561116257611161610e98565b5b61116e87828801610fb5565b925050606061117f878288016110a4565b91505092959194509250565b6111948161100e565b82525050565b60006020820190506111af600083018461118b565b92915050565b6000602082840312156111cb576111ca610e93565b5b60006111d98482850161102f565b91505092915050565b600073ffffffffffffffffffffffffffffffffffffffff82169050919050565b600061120d826111e2565b9050919050565b61121d81611202565b82525050565b600081519050919050565b600082825260208201905092915050565b60005b8381101561125d578082015181840152602081019050611242565b8381111561126c576000848401525b50505050565b600061127d82611223565b611287818561122e565b935061129781856020860161123f565b6112a081610ea7565b840191505092915050565b60006080820190506112c06000830187611214565b81810360208301526112d28186611272565b905081810360408301526112e68185611272565b905081810360608301526112fa8184611272565b905095945050505050565b60008060006060848603121561131e5761131d610e93565b5b600084013567ffffffffffffffff81111561133c5761133b610e98565b5b61134886828701610fb5565b935050602084013567ffffffffffffffff81111561136957611368610e98565b5b61137586828701610fb5565b925050604084013567ffffffffffffffff81111561139657611395610e98565b5b6113a286828701610fb5565b9150509250925092565b600060069050919050565b600081905092915050565b6000819050919050565b6113d58161100e565b82525050565b60006113e783836113cc565b60208301905092915050565b6000602082019050919050565b611409816113ac565b61141381846113b7565b925061141e826113c2565b8060005b8381101561144f57815161143687826113db565b9650611441836113f3565b925050600181019050611422565b505050505050565b600060c08201905061146c6000830184611400565b92915050565b7f4e487b7100000000000000000000000000000000000000000000000000000000600052603260045260246000fd5b7f496e6578697374656e742062617463682075736564206f6e2070726f64756374600082015250565b60006114d760208361122e565b91506114e2826114a1565b602082019050919050565b60006020820190508181036000830152611506816114ca565b9050919050565b7f4e487b7100000000000000000000000000000000000000000000000000000000600052601160045260246000fd5b6000819050919050565b60006115518261153c565b91507fffffffffffffffffffffffffffffffffffffffffffffffffffffffffffffffff82036115835761158261150d565b5b600182019050919050565b7f50726f6475637420494420616c72656164792075736564000000000000000000600082015250565b60006115c460178361122e565b91506115cf8261158e565b602082019050919050565b600060208201905081810360008301526115f3816115b7565b9050919050565b7f4e487b7100000000000000000000000000000000000000000000000000000000600052602260045260246000fd5b6000600282049050600182168061164157607f821691505b602082108103611654576116536115fa565b5b50919050565b7f426174636820494420616c726561647920757365640000000000000000000000600082015250565b600061169060158361122e565b915061169b8261165a565b602082019050919050565b600060208201905081810360008301526116bf81611683565b9050919050565b7f50726f6475637420696e6578697374656e740000000000000000000000000000600082015250565b60006116fc60128361122e565b9150611707826116c6565b602082019050919050565b6000602082019050818103600083015261172b816116ef565b9050919050565b600061173d8261153c565b91506117488361153c565b9250827fffffffffffffffffffffffffffffffffffffffffffffffffffffffffffffffff0382111561177d5761177c61150d565b5b82820190509291505056fea2646970667358221220789d7a1206c13a1ba8459c2c0a269c9237b22208e22a1a77e834425bd71d348264736f6c634300080e0033",
  "immutableReferences": {},
  "source": "// SPDX-License-Identifier: MIT\r\npragma solidity 0.8.14;\r\n\r\ncontract ProductManagement {\r\n    struct Batch{\r\n        address farmer;\r\n        string lote_number;\r\n        string batch_weight;\r\n        string creation_date;\r\n    }\r\n\r\n    struct Product{\r\n        address farmer;\r\n        string lote_number;\r\n        string product_weight;\r\n        string creation_date;\r\n        bytes32[6] batches;\r\n    }\r\n\r\n    mapping(bytes32 => Batch) public batches;\r\n    mapping(bytes32 => Product) public products;\r\n\r\n    constructor() public {\r\n    }\r\n\r\n    function concatenateInfoAndHash(address a1, string memory s1, string memory s2, string memory s3) private returns (bytes32){\r\n        // 4 \r\n        bytes20 b_a1 = bytes20(a1);\r\n        bytes memory b_s1 = bytes(s1);\r\n        bytes memory b_s2 = bytes(s2);\r\n        bytes memory b_s3 = bytes(s3);\r\n\r\n        //5 \r\n        string memory s_full = new string(b_a1.length + b_s1.length + b_s2.length + b_s3.length);\r\n        bytes memory b_full = bytes(s_full);\r\n        uint j = 0;\r\n        uint i;\r\n        for(i = 0; i < b_a1.length; i++){\r\n            b_full[j++] = b_a1[i];\r\n        }\r\n        for(i = 0; i < b_s1.length; i++){\r\n            b_full[j++] = b_s1[i];\r\n        }\r\n        for(i = 0; i < b_s2.length; i++){\r\n            b_full[j++] = b_s2[i];\r\n        }\r\n        for(i = 0; i < b_s3.length; i++){\r\n            b_full[j++] = b_s3[i];\r\n        }\r\n\r\n        //6 \r\n        return keccak256(b_full);\r\n    }\r\n\r\n    function registerBatch(string memory lote_number, string memory batch_weight, string memory creation_date) public returns (bytes32){\r\n        // 7 \r\n        bytes32 part_hash = concatenateInfoAndHash(msg.sender, lote_number, batch_weight, creation_date);\r\n        \r\n        require(batches[part_hash].farmer == address(0), \"Batch ID already used\");\r\n\r\n        Batch memory new_part = Batch(msg.sender, lote_number, batch_weight, creation_date);\r\n        batches[part_hash] = new_part;\r\n        return part_hash;\r\n    }\r\n\r\n    function registerProduct(string memory lote_number, string memory product_weight, string memory creation_date, bytes32[6] memory part_array) public returns (bytes32){\r\n        //8 \r\n        uint i;\r\n        for(i = 0;i < part_array.length; i++){\r\n            require(batches[part_array[i]].farmer != address(0), \"Inexistent batch used on product\");\r\n        }\r\n\r\n        //9 \r\n        bytes32 product_hash = concatenateInfoAndHash(msg.sender, lote_number, product_weight, creation_date);\r\n        \r\n        require(products[product_hash].farmer == address(0), \"Product ID already used\");\r\n\r\n        Product memory new_product = Product(msg.sender, lote_number, product_weight, creation_date, part_array);\r\n        products[product_hash] = new_product;\r\n        return product_hash;\r\n    }\r\n\r\n    function getBatchs(bytes32 product_hash) public returns (bytes32[6] memory){\r\n        //10 The automatic getter does not return arrays, so lets create a function for that\r\n        require(products[product_hash].farmer != address(0), \"Product inexistent\");\r\n        return products[product_hash].batches;\r\n    }\r\n}\r\n",
  "sourcePath": "D:\\ERP\\BlockchainTraceablePork\\contracts\\ProductManagement.sol",
  "compiler": {
    "name": "solc",
    "version": "0.8.14+commit.80d49f37.Emscripten.clang"
  },
  "schemaVersion": "3.4.11",
  "updatedAt": "2023-01-14T02:39:19.012Z",
  "networkType": "ethereum",
  "devdoc": {
    "kind": "dev",
    "methods": {},
    "version": 1
  },
  "userdoc": {
    "kind": "user",
    "methods": {},
    "version": 1
  }
}